S01800004156525F5441534B325F747269616C312E73726563B3
S11300000C9434000C9414020C942E020C944900A9
S11300100C9449000C9449000C9449000C94490038
S11300200C9449000C9449000C9449000C94490028
S11300300C9449000C9449000C9449000C94490018
S11300400C9449000C9449000C9449000C94490008
S11300500C9449000C9449000C9449000C944900F8
S11300600C9449000C94490011241FBECFEFD8E032
S1130070DEBFCDBF11E0A0E0B1E0EEEBFCE002C0DA
S113008005900D92AC34B107D9F70E9404010C9489
S11300905D060C940000EAE7F0E0808187608083CD
S11300A08081806880830895ECE7F0E09081907F00
S11300B08F70892B8083EAE7F0E0808180648083FD
S11300C080917A0086FDFCCF809178009091790030
S11300D008959BB19F70282F207F922B9BB99BB1D1
S11300E09D7F9BB99BB191609BB900009BB19E7FA2
S11300F09BB936E03A95F1F700C02BB130E1839F0C
S1130100C0011124922F9F70892B8BB98BB1816010
S11301108BB900008BB18E7F8BB983EF91E001978F
S1130120F1F700C0000008958FEF8AB982E00E94C1
S1130130690088E20E9469008CE00E94690086E000
S11301400E94690081E00E94690083EF91E00197B9
S1130150F1F700C0000008959BB19F70282F207F05
S1130160922B9BB99BB192609BB99BB191609BB957
S113017000009BB19E7F9BB932E43A95F1F700C031
S11301802BB130E1839FC0011124922F9F70892BE2
S11301908BB98BB181608BB900008BB18E7F8BB929
S11301A083EF91E00197F1F700C0000008950F93E9
S11301B01F93CF93DF938C01C0E0D0E003C00E9473
S11301C0AC002196F801EC0FFD1F80818111F7CF5F
S11301D0DF91CF911F910F910895CF93DF93D82F83
S11301E0C62F611104C080E88D0F0E946900C130E0
S11301F021F480EC8D0F0E94690083E08A95F1F769
S11302000000DF91CF910895CF93DF93CDB7DEB790
S1130210A4970FB6F894DEBF0FBECDBF84B18B7F19
S113022084B985B1846085B9E9E6F0E080818160B4
S113023080838DB381608DBB84B1877F84B985B1A0
S1130240886085B98081846080838DB382608DBB32
S1130250789484B1816084B90E9494000E944B0018
S113026082E090E00E945400BC0180E090E00E9493
S1130270780220E030E040EA50E40E94DE0220E010
S113028030E040E85AE30E94DE0220E030E048EC2F
S113029052E40E94DE020E944902E62EF12C809173
S11302A0000190910101E816F9060CF48BC085B1A8
S11302B0816085B91F926F9382E091E09F938F9341
S11302C08E010F5F1F4F1F930F930E94730360E013
S11302D080E00E94ED00C8010E94D70080910101D6
S11302E08F93809100018F9381E191E09F938F938D
S11302F01F930F930E94730361E080E00E94ED005E
S1130300C8010E94D7002FEF37E883E12150304025
S11303108040E1F700C0000080910001909101014C
S11303200FB6F894DEBF0FBECDBFE816F9060CF089
S113033097CF16BC84B58C7F84BD85B5877F85BD7A
S113034085B5856085BDA89BFECF85B3816085BBDF
S1130350D3943FEF83EC99E0315080409040E1F733
S113036000C00000809101018F93809100018F9360
S113037084E291E09F938F938E010F5F1F4F1F9331
S11303800F930E94730361E080E00E94ED00C801B6
S11303900E94D7000F900F900F900F900F900F9026
S11303A028E12D1508F05CCF85B18E7F85B93FEF2C
S11303B083EC99E0315080409040E1F700C00000A8
S11303C0D12C4ECF85B18E7F85B91F926F9382E079
S11303D091E09F938F938E010F5F1F4F1F930F9395
S11303E00E94730360E080E00E94ED00C8010E9457
S11303F0D700809101018F93809100018F9388E34E
S113040091E09F938F931F930F930E94730361E076
S113041080E00E94ED00C8010E94D7000FB6F89456
S1130420DEBF0FBECDBF1CCF1F920F920FB60F922F
S113043011248F939F9385B1805885B980910001D1
S113044090910101019690930101809300019F9185
S11304508F910F900FBE0F901F9018951F920F92BF
S11304600FB60F9211248F939F9395B180E489273F
S113047085B9809100019091010101979093010148
S1130480809300019F918F910F900FBE0F901F904A
S113049018950E94BD0288F09F5798F0B92F9927AC
S11304A0B751B0F0E1F0660F771F881F991F1AF05B
S11304B0BA95C9F714C0B13091F00E94D702B1E0E7
S11304C008950C94D702672F782F8827B85F39F0E6
S11304D0B93FCCF3869577956795B395D9F73EF4F4
S11304E090958095709561957F4F8F4F9F4F08959C
S11304F0E89409C097FB3EF49095809570956195BA
S11305007F4F8F4F9F4F9923A9F0F92F96E9BB276F
S11305109395F695879577956795B795F111F8CFEB
S1130520FAF4BB0F11F460FF1BC06F5F7F4F8F4F56
S11305309F4F16C0882311F096E911C0772321F04C
S11305409EE8872F762F05C0662371F096E8862FE4
S113055070E060E02AF09A95660F771F881FDAF73B
S1130560880F9695879597F9089557FD9058440FED
S1130570551F59F05F3F71F04795880F97FB991FFE
S113058061F09F3F79F087950895121613061406BB
S1130590551FF2CF4695F1DF08C016161706180648
S11305A0991FF1CF86957105610508940895E89423
S11305B0BB2766277727CB0197F908950E94F1029C
S11305C00C9462030E94540338F00E945B0320F0F1
S11305D0952311F00C944B030C94510311240C94A7
S11305E0D8020E94B50270F3959FC1F3950F50E0B5
S11305F0551F629FF001729FBB27F00DB11D639FD1
S1130600AA27F00DB11DAA1F649F6627B00DA11D76
S1130610661F829F2227B00DA11D621F739FB00D1C
S1130620A11D621F839FA00D611D221F749F33278C
S1130630A00D611D231F849F600D211D822F762F25
S11306406A2F11249F5750409AF0F1F088234AF002
S1130650EE0FFF1FBB1F661F771F881F915050406E
S1130660A9F79E3F510580F00C944B030C94D802DB
S11306705F3FE4F3983ED4F3869577956795B795F5
S1130680F795E7959F5FC1F7FE2B880F911D96950F
S1130690879597F9089597F99F6780E870E060E07F
S11306A008959FEF80EC089500240A941616170607
S11306B018060906089500240A941216130614064F
S11306C005060895092E0394000C11F4882352F0B2
S11306D0BB0F40F4BF2B11F460FF04C06F5F7F4F6A
S11306E08F4F9F4F0895AEE0B0E0E9E7F3E00C943C
S11306F034060D891E8986E08C831A8309838FEF63
S11307009FE79E838D83AE01475E5F4F6F89788D2F
S1130710CE0101960E949503EF81F885E00FF11F49
S113072010822E96E4E00C945006ABE0B0E0EBE9C6
S1130730F3E00C9426066C017B018A01FC0117820C
S11307401682838181FFCCC1CE0101963C01F60162
S11307509381F70193FD859193FF81917F01882314
S113076009F4BAC1853239F493FD859193FF8191DF
S11307707F01853229F4B60190E00E948C05E7CF11
S1130780912C212C312CFFE1F315D8F08B3279F028
S113079038F4803279F08332A1F4232D20611DC016
S11307A08D3261F0803369F4232D216016C0832DCE
S11307B08260382EE32DE4603E2E2AC0F32DF860CB
S11307C01DC037FC2DC020ED280F2A3040F08E329A
S11307D0B9F436FC81C1232D2064322E19C036FEB3
S11307E006C08AE0989E200D1124922E11C0EAE0E2
S11307F02E9E200D1124222EF32DF0623F2E08C0D0
S11308008C3621F4832D8068382E02C0883641F45A
S1130810F70193FD859193FF81917F018111B3CFFE
S1130820982F9F7D9554933028F40C5F1F4F9FE3BE
S113083099830DC0833631F0833771F0833509F025
S113084059C021C0F801808189830E5F1F4F88241D
S11308508394912C530113C02801F2E04F0E511CD4
S1130860F801A080B18036FE03C0692D70E002C09B
S11308706FEF7FEFC5010E9481054C018201F32DCA
S1130880FF773F2E16C0280122E0420E511CF801CA
S1130890A080B18036FE03C0692D70E002C06FEF06
S11308A07FEFC5010E9476054C01F32DF0683F2EC1
S11308B0820133FC1BC0822D90E088169906B0F4A7
S11308C0B60180E290E00E948C052A94F4CFF501F1
S11308D037FC859137FE81915F01B60190E00E945B
S11308E08C0521102A9421E0821A91088114910424
S11308F071F7E8C0843611F0893641F5F80137FE06
S113090007C060817181828193810C5F1F4F08C091
S113091060817181072E000C880B990B0E5F1F4FAD
S1130920F32DFF763F2E97FF09C090958095709523
S113093061957F4F8F4F9F4FF0683F2E2AE030E044
S1130940A3010E94C805882E861845C0853731F456
S1130950232D2F7EB22E2AE030E025C0932D997FDF
S1130960B92E8F36C1F018F4883579F0B5C08037C8
S113097019F0883721F0B0C0E92FE061BE2EB4FE33
S11309800DC0FB2DF460BF2E09C034FE0AC0292F10
S11309902660B22E06C028E030E005C020E130E039
S11309A002C020E132E0F801B7FE07C06081718126
S11309B0828193810C5F1F4F06C06081718180E04A
S11309C090E00E5F1F4FA3010E94C805882E861871
S11309D0FB2DFF773F2E36FE0DC0232D2E7FA22E3A
S11309E0891458F434FE0BC032FC09C0832D8E7E6A
S11309F0A82E05C0B82CA32C03C0B82C01C0B92C58
S1130A00A4FE0FC0FE01E80DF11D8081803321F4A6
S1130A109A2D997EA92E09C0A2FE06C0B394B39460
S1130A2004C08A2D867809F0B394A3FC11C0A0FEFB
S1130A3006C0B21488F4280C922C9B180EC0B21471
S1130A4060F4B60180E290E00E948C05B394F7CF85
S1130A50B21418F42B1802C0982C212CA4FE10C038
S1130A60B60180E390E00E948C05A2FE17C0A1FCB1
S1130A7003C088E790E002C088E590E0B6010CC0AE
S1130A808A2D867859F0A1FE02C08BE201C080E273
S1130A90A7FC8DE2B60190E00E948C05891438F41D
S1130AA0B60180E390E00E948C059A94F7CF8A9473
S1130AB0F301E80DF11D8081B60190E00E948C05E0
S1130AC08110F5CF222009F442CEB60180E290E0F5
S1130AD00E948C052A94F6CFF6018681978102C084
S1130AE08FEF9FEF2B96E2E10C944206FC010590F8
S1130AF0615070400110D8F7809590958E0F9F1F1C
S1130B000895FC016150704001900110D8F7809560
S1130B1090958E0F9F1F08950F931F93CF93DF938C
S1130B20FB01238121FD03C08FEF9FEF2CC022FF27
S1130B3016C046815781248135814217530744F4F6
S1130B40A081B1819D012F5F3F4F318320838C931E
S1130B50268137812F5F3F4F3783268314C08B0153
S1130B60EC01FB010084F185E02D0995892BE1F668
S1130B70D80116968D919C911797019617969C9380
S1130B808E931697CE01DF91CF911F910F91089507
S1130B90FA01AA27283051F1203181F1E8946F93AA
S1130BA06E7F6E5F7F4F8F4F9F4FAF4FB1E03ED050
S1130BB0B4E03CD0670F781F891F9A1FA11D680FEE
S1130BC0791F8A1F911DA11D6A0F711D811D911D21
S1130BD0A11D20D009F468943F912AE0269F112496
S1130BE03019305D3193DEF6CF010895462F4770FA
S1130BF0405D4193B3E00FD0C9F7F6CF462F4F7055
S1130C00405D4A3318F0495D31FD4052419302D0B2
S1130C10A9F7EACFB4E0A695979587957795679558
S1130C20BA95C9F700976105710508959B01AC0158
S1130C300A2E06945795479537952795BA95C9F77F
S1130C40620F731F841F951FA01D08952F923F925A
S1130C504F925F926F927F928F929F92AF92BF92C8
S1130C60CF92DF92EF92FF920F931F93CF93DF9374
S1130C70CDB7DEB7CA1BDB0B0FB6F894DEBF0FBED1
S1130C80CDBF09942A88398848885F846E847D841E
S1130C908C849B84AA84B984C884DF80EE80FD8020
S1130CA00C811B81AA81B981CE0FD11D0FB6F89496
S1110CB0DEBF0FBECDBFED010895F894FFCF57
S1130CBE1E0054656D70657261747572653A2564B3
S1130CCE004F4E2C5448524553484F4C443A2564D9
S1130CDE202020004F46462C5448524553484F4C32
S1130CEE443A2564202020004F46462C54687265F1
S10F0CFE73686F6C643A256420202000A9
S9030000FC
